{
	"my_first_contract.sol": {
		"ContractulMeu": {
			"abi": [
				{
					"inputs": [],
					"name": "double",
					"outputs": [],
					"stateMutability": "nonpayable",
					"type": "function"
				},
				{
					"inputs": [],
					"name": "get",
					"outputs": [
						{
							"internalType": "uint256",
							"name": "",
							"type": "uint256"
						}
					],
					"stateMutability": "view",
					"type": "function"
				}
			],
			"devdoc": {
				"kind": "dev",
				"methods": {},
				"version": 1
			},
			"evm": {
				"assembly": "    /* \"my_first_contract.sol\":25:238  contract ContractulMeu \r... */\n  mstore(0x40, 0x80)\n    /* \"my_first_contract.sol\":71:72  1 */\n  0x01\n    /* \"my_first_contract.sol\":57:72  uint valoare =1 */\n  0x00\n  sstore\n    /* \"my_first_contract.sol\":25:238  contract ContractulMeu \r... */\n  callvalue\n  dup1\n  iszero\n  tag_1\n  jumpi\n  0x00\n  dup1\n  revert\ntag_1:\n  pop\n  dataSize(sub_0)\n  dup1\n  dataOffset(sub_0)\n  0x00\n  codecopy\n  0x00\n  return\nstop\n\nsub_0: assembly {\n        /* \"my_first_contract.sol\":25:238  contract ContractulMeu \r... */\n      mstore(0x40, 0x80)\n      callvalue\n      dup1\n      iszero\n      tag_1\n      jumpi\n      0x00\n      dup1\n      revert\n    tag_1:\n      pop\n      jumpi(tag_2, lt(calldatasize, 0x04))\n      shr(0xe0, calldataload(0x00))\n      dup1\n      0x6d4ce63c\n      eq\n      tag_3\n      jumpi\n      dup1\n      0x8fdb7189\n      eq\n      tag_4\n      jumpi\n    tag_2:\n      0x00\n      dup1\n      revert\n        /* \"my_first_contract.sol\":81:162  function get() public view returns (uint) \r... */\n    tag_3:\n      tag_5\n      tag_6\n      jump\t// in\n    tag_5:\n      mload(0x40)\n      tag_7\n      swap2\n      swap1\n      tag_8\n      jump\t// in\n    tag_7:\n      mload(0x40)\n      dup1\n      swap2\n      sub\n      swap1\n      return\n        /* \"my_first_contract.sol\":174:235  function double() public \r... */\n    tag_4:\n      tag_9\n      tag_10\n      jump\t// in\n    tag_9:\n      stop\n        /* \"my_first_contract.sol\":81:162  function get() public view returns (uint) \r... */\n    tag_6:\n        /* \"my_first_contract.sol\":117:121  uint */\n      0x00\n        /* \"my_first_contract.sol\":147:154  valoare */\n      dup1\n      sload\n        /* \"my_first_contract.sol\":140:154  return valoare */\n      swap1\n      pop\n        /* \"my_first_contract.sol\":81:162  function get() public view returns (uint) \r... */\n      swap1\n      jump\t// out\n        /* \"my_first_contract.sol\":174:235  function double() public \r... */\n    tag_10:\n        /* \"my_first_contract.sol\":226:227  2 */\n      0x02\n        /* \"my_first_contract.sol\":216:223  valoare */\n      0x00\n      dup1\n        /* \"my_first_contract.sol\":216:227  valoare *=2 */\n      dup3\n      dup3\n      sload\n      tag_13\n      swap2\n      swap1\n      tag_14\n      jump\t// in\n    tag_13:\n      swap3\n      pop\n      pop\n      dup2\n      swap1\n      sstore\n      pop\n        /* \"my_first_contract.sol\":174:235  function double() public \r... */\n      jump\t// out\n        /* \"#utility.yul\":7:125   */\n    tag_16:\n        /* \"#utility.yul\":94:118   */\n      tag_18\n        /* \"#utility.yul\":112:117   */\n      dup2\n        /* \"#utility.yul\":94:118   */\n      tag_19\n      jump\t// in\n    tag_18:\n        /* \"#utility.yul\":89:92   */\n      dup3\n        /* \"#utility.yul\":82:119   */\n      mstore\n        /* \"#utility.yul\":72:125   */\n      pop\n      pop\n      jump\t// out\n        /* \"#utility.yul\":131:353   */\n    tag_8:\n      0x00\n        /* \"#utility.yul\":262:264   */\n      0x20\n        /* \"#utility.yul\":251:260   */\n      dup3\n        /* \"#utility.yul\":247:265   */\n      add\n        /* \"#utility.yul\":239:265   */\n      swap1\n      pop\n        /* \"#utility.yul\":275:346   */\n      tag_21\n        /* \"#utility.yul\":343:344   */\n      0x00\n        /* \"#utility.yul\":332:341   */\n      dup4\n        /* \"#utility.yul\":328:345   */\n      add\n        /* \"#utility.yul\":319:325   */\n      dup5\n        /* \"#utility.yul\":275:346   */\n      tag_16\n      jump\t// in\n    tag_21:\n        /* \"#utility.yul\":229:353   */\n      swap3\n      swap2\n      pop\n      pop\n      jump\t// out\n        /* \"#utility.yul\":359:707   */\n    tag_14:\n      0x00\n        /* \"#utility.yul\":422:442   */\n      tag_23\n        /* \"#utility.yul\":440:441   */\n      dup3\n        /* \"#utility.yul\":422:442   */\n      tag_19\n      jump\t// in\n    tag_23:\n        /* \"#utility.yul\":417:442   */\n      swap2\n      pop\n        /* \"#utility.yul\":456:476   */\n      tag_24\n        /* \"#utility.yul\":474:475   */\n      dup4\n        /* \"#utility.yul\":456:476   */\n      tag_19\n      jump\t// in\n    tag_24:\n        /* \"#utility.yul\":451:476   */\n      swap3\n      pop\n        /* \"#utility.yul\":644:645   */\n      dup2\n        /* \"#utility.yul\":576:642   */\n      0xffffffffffffffffffffffffffffffffffffffffffffffffffffffffffffffff\n        /* \"#utility.yul\":572:646   */\n      div\n        /* \"#utility.yul\":569:570   */\n      dup4\n        /* \"#utility.yul\":566:647   */\n      gt\n        /* \"#utility.yul\":561:562   */\n      dup3\n        /* \"#utility.yul\":554:563   */\n      iszero\n        /* \"#utility.yul\":547:564   */\n      iszero\n        /* \"#utility.yul\":543:648   */\n      and\n        /* \"#utility.yul\":540:542   */\n      iszero\n      tag_25\n      jumpi\n        /* \"#utility.yul\":651:669   */\n      tag_26\n      tag_27\n      jump\t// in\n    tag_26:\n        /* \"#utility.yul\":540:542   */\n    tag_25:\n        /* \"#utility.yul\":699:700   */\n      dup3\n        /* \"#utility.yul\":696:697   */\n      dup3\n        /* \"#utility.yul\":692:701   */\n      mul\n        /* \"#utility.yul\":681:701   */\n      swap1\n      pop\n        /* \"#utility.yul\":407:707   */\n      swap3\n      swap2\n      pop\n      pop\n      jump\t// out\n        /* \"#utility.yul\":713:790   */\n    tag_19:\n      0x00\n        /* \"#utility.yul\":779:784   */\n      dup2\n        /* \"#utility.yul\":768:784   */\n      swap1\n      pop\n        /* \"#utility.yul\":758:790   */\n      swap2\n      swap1\n      pop\n      jump\t// out\n        /* \"#utility.yul\":796:976   */\n    tag_27:\n        /* \"#utility.yul\":844:921   */\n      0x4e487b7100000000000000000000000000000000000000000000000000000000\n        /* \"#utility.yul\":841:842   */\n      0x00\n        /* \"#utility.yul\":834:922   */\n      mstore\n        /* \"#utility.yul\":941:945   */\n      0x11\n        /* \"#utility.yul\":938:939   */\n      0x04\n        /* \"#utility.yul\":931:946   */\n      mstore\n        /* \"#utility.yul\":965:969   */\n      0x24\n        /* \"#utility.yul\":962:963   */\n      0x00\n        /* \"#utility.yul\":955:970   */\n      revert\n\n    auxdata: 0xa26469706673582212200cdda0f0edc254f24e661825c63b3fff552e675566a67260b354a3cf96c12e2c64736f6c63430008000033\n}\n",
				"bytecode": {
					"linkReferences": {},
					"object": "6080604052600160005534801561001557600080fd5b5061017a806100256000396000f3fe608060405234801561001057600080fd5b50600436106100365760003560e01c80636d4ce63c1461003b5780638fdb718914610059575b600080fd5b610043610063565b6040516100509190610096565b60405180910390f35b61006161006c565b005b60008054905090565b600260008082825461007e91906100b1565b92505081905550565b6100908161010b565b82525050565b60006020820190506100ab6000830184610087565b92915050565b60006100bc8261010b565b91506100c78361010b565b9250817fffffffffffffffffffffffffffffffffffffffffffffffffffffffffffffffff0483118215151615610100576100ff610115565b5b828202905092915050565b6000819050919050565b7f4e487b7100000000000000000000000000000000000000000000000000000000600052601160045260246000fdfea26469706673582212200cdda0f0edc254f24e661825c63b3fff552e675566a67260b354a3cf96c12e2c64736f6c63430008000033",
					"opcodes": "PUSH1 0x80 PUSH1 0x40 MSTORE PUSH1 0x1 PUSH1 0x0 SSTORE CALLVALUE DUP1 ISZERO PUSH2 0x15 JUMPI PUSH1 0x0 DUP1 REVERT JUMPDEST POP PUSH2 0x17A DUP1 PUSH2 0x25 PUSH1 0x0 CODECOPY PUSH1 0x0 RETURN INVALID PUSH1 0x80 PUSH1 0x40 MSTORE CALLVALUE DUP1 ISZERO PUSH2 0x10 JUMPI PUSH1 0x0 DUP1 REVERT JUMPDEST POP PUSH1 0x4 CALLDATASIZE LT PUSH2 0x36 JUMPI PUSH1 0x0 CALLDATALOAD PUSH1 0xE0 SHR DUP1 PUSH4 0x6D4CE63C EQ PUSH2 0x3B JUMPI DUP1 PUSH4 0x8FDB7189 EQ PUSH2 0x59 JUMPI JUMPDEST PUSH1 0x0 DUP1 REVERT JUMPDEST PUSH2 0x43 PUSH2 0x63 JUMP JUMPDEST PUSH1 0x40 MLOAD PUSH2 0x50 SWAP2 SWAP1 PUSH2 0x96 JUMP JUMPDEST PUSH1 0x40 MLOAD DUP1 SWAP2 SUB SWAP1 RETURN JUMPDEST PUSH2 0x61 PUSH2 0x6C JUMP JUMPDEST STOP JUMPDEST PUSH1 0x0 DUP1 SLOAD SWAP1 POP SWAP1 JUMP JUMPDEST PUSH1 0x2 PUSH1 0x0 DUP1 DUP3 DUP3 SLOAD PUSH2 0x7E SWAP2 SWAP1 PUSH2 0xB1 JUMP JUMPDEST SWAP3 POP POP DUP2 SWAP1 SSTORE POP JUMP JUMPDEST PUSH2 0x90 DUP2 PUSH2 0x10B JUMP JUMPDEST DUP3 MSTORE POP POP JUMP JUMPDEST PUSH1 0x0 PUSH1 0x20 DUP3 ADD SWAP1 POP PUSH2 0xAB PUSH1 0x0 DUP4 ADD DUP5 PUSH2 0x87 JUMP JUMPDEST SWAP3 SWAP2 POP POP JUMP JUMPDEST PUSH1 0x0 PUSH2 0xBC DUP3 PUSH2 0x10B JUMP JUMPDEST SWAP2 POP PUSH2 0xC7 DUP4 PUSH2 0x10B JUMP JUMPDEST SWAP3 POP DUP2 PUSH32 0xFFFFFFFFFFFFFFFFFFFFFFFFFFFFFFFFFFFFFFFFFFFFFFFFFFFFFFFFFFFFFFFF DIV DUP4 GT DUP3 ISZERO ISZERO AND ISZERO PUSH2 0x100 JUMPI PUSH2 0xFF PUSH2 0x115 JUMP JUMPDEST JUMPDEST DUP3 DUP3 MUL SWAP1 POP SWAP3 SWAP2 POP POP JUMP JUMPDEST PUSH1 0x0 DUP2 SWAP1 POP SWAP2 SWAP1 POP JUMP JUMPDEST PUSH32 0x4E487B7100000000000000000000000000000000000000000000000000000000 PUSH1 0x0 MSTORE PUSH1 0x11 PUSH1 0x4 MSTORE PUSH1 0x24 PUSH1 0x0 REVERT INVALID LOG2 PUSH5 0x6970667358 0x22 SLT KECCAK256 0xC 0xDD LOG0 CREATE 0xED 0xC2 SLOAD CALLCODE 0x4E PUSH7 0x1825C63B3FFF55 0x2E PUSH8 0x5566A67260B354A3 0xCF SWAP7 0xC1 0x2E 0x2C PUSH5 0x736F6C6343 STOP ADDMOD STOP STOP CALLER "
				},
				"gasEstimates": {
					"creation": {
						"codeDepositCost": "75600",
						"executionCost": "20129",
						"totalCost": "95729"
					},
					"external": {
						"double()": "infinite",
						"get()": "1115"
					}
				},
				"methodIdentifiers": {
					"double()": "8fdb7189",
					"get()": "6d4ce63c"
				}
			},
			"storageLayout": {
				"storage": [
					{
						"astId": 4,
						"contract": "my_first_contract.sol:ContractulMeu",
						"label": "valoare",
						"offset": 0,
						"slot": "0",
						"type": "t_uint256"
					}
				],
				"types": {
					"t_uint256": {
						"encoding": "inplace",
						"label": "uint256",
						"numberOfBytes": "32"
					}
				}
			},
			"userdoc": {
				"kind": "user",
				"methods": {},
				"version": 1
			}
		}
	}
}